:1000000000200020257A0000517A0000517A00007B
:10001000517A0000517A0000517A0000517A0000B4
:10002000517A0000517A0000517A0000517A0000A4
:10003000517A0000517A0000517A0000517A000094
:100040008D590000517A000085430000517A00006C
:10005000517A0000517A0000517A0000517A000074
:10006000517A0000517A0000517A0000517A000064
:10007000517A0000517A0000517A0000517A000054
:10008000517A0000517A0000517A0000A92E000038
:10009000517A000010B5064C2378002B07D1054B90
:1000A000002B02D0044800E000BF0123237010BDE4
:1000B000000100200000000024B0000008B5084B3B
:1000C000002B03D00748084900E000BF0748036839
:1000D000002B03D0064B002B00D0984708BDC0462C
:1000E0000000000024B0000004010020A80000204F
:1000F00000000000164B002B00D1144B9D464022FF
:1001000092029A1A924600218B460F461348144ACF
:10011000121A07F0ACFE0F4B002B00D098470E4B85
:10012000002B00D098470020002104000D000D484E
:10013000002802D00C4800E000BF07F055FE200068
:10014000290000F033F807F039FEC046000008002F
:10015000002000200000000000000000000100203E
:1001600008100020000000000000000080B582B0F0
:1001700000AF094B1B687B607B681B0E812B08D886
:10018000064B074A1A60074B064A1168064A0A409E
:100190001A60BD4602B080BDFC81E00F18600C40C3
:1001A00005000004E4800C40FFFFFFFEB0B59CB0EA
:1001B00004AF00233B653B1C4033614A13CA13C3A1
:1001C0003B1C2C33181C0021142207F050FE3B1C52
:1001D0001833181C0021142207F049FE3B1D181C7F
:1001E0000021142207F043FE0023FB6400237B65FB
:1001F00000F0C4F9031CFB64FB6C002B00D19AE0F7
:10020000FFF7B4FF1120042105F072F906F0D4FDC8
:100210004C4B0020191C06F0F9FD031C002B00D0EC
:10022000FEE7494A80231B01101CFF211A1C07F01E
:100230001EFE444B1C6A434B5D68424BD968414AE1
:10024000414B002000900191101C191C00222B1C16
:10025000A0473E4B00221A703D4B181C00F0FAFDDF
:1002600000F0E2FDFA239B00181C04F0E5F800F012
:10027000D1FD3449344A374B081C032100F0A2F861
:10028000344BFB65FA239B00181C04F0D5F80023BF
:100290007B6519E03B1C40337A6D9200D358181CE3
:1002A00008F08EF8031C3B653B1C40337A6D9200CE
:1002B000D258F96C3B6D081C111C1A1C012300F06C
:1002C00081F97B6D01337B657B6D022BE2DD3B1C8D
:1002D0002C3314220092FA6C019201220292142013
:1002E00014210A2200F0A6F93A1DFB6C01210091AD
:1002F0001420111C142200F0C5F9144B1B78DBB23A
:10030000002B17D000F09AFD031C052B02D1124BD5
:10031000BB6501E00F4BBB650C4B1B78D9B209489C
:10032000FA6DBB6D00F04EF8084B00221A70BB6DE1
:10033000FB65E2E7E1E70023181CBD4618B0B0BD3D
:1003400098A400001C0100204C010020480100205E
:1003500048A40000349C00003494000080B582B0B2
:1003600000AF0A1CFB1D011C1970BB1D1A70FB1D80
:100370001A78BB1D1B78101C191C06F021FABB1D36
:100380001B78052B08D10E4B1B78DBB2002B13D149
:100390000B4B01221A700FE0FB1D1B78052B0BD1B4
:1003A000BB1D1B78062B07D1054B1B78DBB2002B3E
:1003B00002D1034B02221A70BD4602B080BDC04676
:1003C0004801002090B593B002AFF8607A603B60BE
:1003D0003B1C0B330A1C1A703B1C0B331B78032B82
:1003E00053D10023FB634CE000233B6343E03B6BB2
:1003F0001B013A68D318FB623B6B1B017A68D31868
:100400007B6200237B6321E0FB6B1022D21A7B6BA3
:100410009A420BDD7A6BFB6BD3187A6AD3181A7881
:10042000391C14317B6BCB181A700CE0FB6B1A1C57
:10043000103A7B6BD318FA6AD3181A78391C143126
:100440007B6BCB181A707B6B01337B637B6B0F2B41
:10045000DADDFB681C6AFB685B68386BF9683A1C7C
:100460001432009001200190081C111C0022A047AA
:100470003B6B01333B633B6B7F2BB8DDFB6B013385
:10048000FB63FB6B102BAFDD44E00023FB633EE01E
:100490003B1C0B331B78012B0BD1FB6B1B017A68C8
:1004A000D318BB62FB6B8022D31ABB633B68FB6231
:1004B0000AE0FB6B8022D31A1B013A68D318BB6297
:1004C000FB6BBB637B68FB6200233B6319E03A6B09
:1004D000BB6B9A4201D1FB6ABB62FB681C6AFB687A
:1004E0005B68386BF968BA6A009001200190081CBB
:1004F000111C0022A047BB6A1033BB623B6B013367
:100500003B633B6B7F2BE2DDFB6B0233FB63FB6BDF
:10051000802BBDDDBD4611B090BDC04680B500AF9B
:1005200072B6074B1B68013304D0054B1B685A1C7D
:10053000034B1A60024B1B68181CBD4680BDC046A9
:10054000840C002080B582B000AF0B4B1B68002BE1
:100550000DD0094B1B685A1E074B1A60064B1B68CF
:100560007B607B68002B00D162B67B6800E00023D3
:10057000181CBD4602B080BD840C002080B582B03E
:1005800000AF00237B600C2007F054FC031C7B6051
:100590007B68002B05D10A4B181C07F037FD0023A0
:1005A00009E07B6800221A607B6800225A607B6841
:1005B00000229A607B68181CBD4602B080BDC04610
:1005C000A8A4000080B586B000AFF860B9607A607A
:1005D0003B6001235B427B61F968BA687B68081C59
:1005E000111C1A1C012300F075F8031C7B617B6948
:1005F000002B04D00D4B181C07F008FD10E0FB6821
:10060000181C00F0B9F8031C7B617B69002B03D038
:10061000074B181C07F0FAFCFB68181C00F012F9D5
:100620007B69181CBD4606B080BDC046C8A400004A
:10063000E8A4000090B589B002AFF860B9607A60B4
:100640003B6000237B61BB6A3A68101C00211A1CC6
:1006500007F00DFC38680A49FA68BB687C680094AA
:1006600007F0F0FCF86A3968BA6A3B6BFFF7AAFF3B
:10067000031C7B617B69181CBD4607B090BDC0465A
:1006800000A5000080B586B000AFF860B9607A6060
:100690003B6000237B617B68BA68101C00211A1C38
:1006A00007F0E5FBB9680A4AFB68081C111C1A1C14
:1006B00007F0C8FC3868B9687A683B6AFFF782FFC0
:1006C000031C7B617B69181CBD4606B080BDC0461B
:1006D00010A5000080B586B000AFF860B9607A6000
:1006E0003B6000237B6100233B617B68002B09D1C9
:1006F000BB68002B06D11D4B181C07F087FC01239B
:100700005B427B61BB68181C07F05AFE031C033375
:100710003B61FB683A695A60FB683A689A603B69DA
:10072000181C07F087FB021CFB681A60FB681B683B
:10073000002B07D10E4B181C07F068FC01235B420D
:100740007B610EE0FB681A68BB68101C191C07F07F
:10075000A8FCFB681A68074B1B68101C191C07F0E3
:1007600093FC7B69181CBD4606B080BD20A5000027
:10077000A8A400000400002080B582B000AF78601B
:100780007B681A687B685B681A49081C111C1A1C74
:1007900007F064FB7B681B68181C07F055FBFFF72C
:1007A000BDFE154B1B78002B15D07B685A6811498C
:1007B000124B812000F0C2FE031CDAB2104B1A70FB
:1007C0007B685B681A1C0F4B1A6000200121002215
:1007D00003F0D8FF05E0084B00221A70002004F057
:1007E0006DF8FFF7AFFE064B1B785BB2181CBD46D9
:1007F00002B080BD4C090020000000200908000064
:10080000540B0020500B002080B584B000AFB960BD
:100810007A603B1C0F33021C1A70084B1A68BB68C5
:100820009A4202D007235B4203E0054B01221A7073
:100830000023181CBD4604B080BDC046500B0020EC
:100840000000002080B582B000AF78607B681B6834
:10085000002B04D07B681B68181C07F0F5FAC04613
:10086000BD4602B080BDC04680B582B000AF021C5C
:10087000FB1D1A70064BFA1D1278111C1F220A402C
:100880000121081C9040021C1A60BD4602B080BDC8
:1008900000E100E080B582B000AF021CFB1D1A70C1
:1008A000064AFB1D1B78191C1F230B400121994090
:1008B000C0235B00D150BD4602B080BD00E100E026
:1008C00080B500AF72B6074B1B68013304D0054BEF
:1008D0001B685A1C034B1A60024B1B68181CBD4650
:1008E00080BDC046840C002080B582B000AF0B4BA9
:1008F0001B68002B0DD0094B1B685A1E074B1A6052
:10090000064B1B687B607B68002B00D162B67B685E
:1009100000E00023181CBD4602B080BD840C0020FE
:1009200080B500AF054A0549054BCB580121181C7D
:100930008843011C024BD150BD4680BD00400C4095
:1009400008C0030080B500AF044A0449044BCB58EB
:1009500001211943024BD150BD4680BD00400C40DF
:1009600008C0030080B500AF054A064B0021D150F6
:10097000034A044BC0214901D150BD4680BDC04649
:1009800000400C4018C0030080B584B000AF786010
:100990003B1C0F3300221A707A683B1C0C33101C6E
:1009A000191C00F015F8031C002B0AD13B1C0C335A
:1009B0001B881A1C01231A403B1C0F33511E8A410D
:1009C0001A703B1C0F331B78181CBD4604B080BD49
:1009D00080B586B000AF786039603B1C1733FF22CA
:1009E0001A707B681B78002B24D07B689B785B0196
:1009F000264A9B181B683B613A69C0231B031340BE
:100A0000FB60FA68C0231B039A4204D0FA68802373
:100A10001B039A4232D13A6980239B0313405A1E2A
:100A20009341DBB21A1C3B681A803B1C173300222F
:100A30001A7023E07B689B785B01154A9B181B6842
:100A40003B613A69C0231B031340FB60FA68C02373
:100A50001B039A4204D0FA6880231B039A420DD1EB
:100A60003A6980239B0313405A1E9341DBB21A1C40
:100A70003B681A803B1C173300221A703B1C17334B
:100A80001B785BB2181CBD4606B080BD0009104043
:100A9000000B104080B582B000AF7860034A7968DF
:100AA000034BD150BD4602B080BDC04600400C4053
:100AB00014C9030080B582B000AF7860034A79683A
:100AC000034BD150BD4602B080BDC04600400C4033
:100AD00014CB030080B582B000AF786039600B4A58
:100AE0007B68802109031943094BD150074A074904
:100AF000084BC958084B19403B680B438421090631
:100B00001943044BD150BD4602B080BD00400C409B
:100B100010C9030000C90300FFFFFF4380B582B086
:100B200000AF786039600B4A7B6880210903194364
:100B3000094BD150074A0749084BC958084B19407F
:100B40003B680B43842109061943044BD150BD4631
:100B500002B080BD00400C4010CB030000CB03006E
:100B6000FFFFFF4380B584B000AF78607B681B69EE
:100B7000002B04D10123FB600023BB6010E07B68E5
:100B80001A697B689B89D3185A1E7B689B89101C45
:100B9000191C07F023F8031CFB607B681B69BB6012
:100BA0007B689B785B0116495B187A6892785201E2
:100BB000134952181269D20FD107BA681143FA6863
:100BC000D2040A431A617B689B785B010C4A9B182C
:100BD0007A6892685A617B689B785B0108495B1868
:100BE0007A6892785201064952181168054A0A40FB
:100BF000842109060A431A60BD4604B080BDC04680
:100C000000091040FFFFFF4380B584B000AF78605B
:100C10007B681B69002B05D10123FB607B689B89E6
:100C2000BB6012E07B681A697B689B89D3185A1EE7
:100C30007B689B89101C191C06F0D0FF031CFB600D
:100C40007B689B89FA685343BB607B689B785B0138
:100C500017495B187A68927852011549521812693F
:100C6000520F5107BA681143FA68D2040A431A6155
:100C70007B68BA689A617B689B785B010C4A9B1819
:100C80007A6892685A617B689B785B0108495B18B7
:100C90007A6892785201064952181168054A0A404A
:100CA000842109060A431A60BD4604B080BDC046CF
:100CB000000B1040FFFFFF4380B582B000AF7860AB
:100CC0007B689B78002B04D17B68181C00F008F827
:100CD00003E07B68181C00F045F8BD4602B080BDFB
:100CE00080B584B000AF78607B681B78002B23D080
:100CF0007B681B69002B02D17B6801225A707B68DC
:100D00009B68181CFFF7C6FE7B681B69FB603B1CD9
:100D10000A337A6892891A803B1C0A331B88FA6866
:100D2000934200D9131C0E4A1168F4228A58181CE9
:100D3000111CFFF7CFFE0FE07B689B68181CFFF7C4
:100D4000B9FE7B689B891A1C054B1968F423CB58A4
:100D5000101C191CFFF7E2FEBD4604B080BDC04662
:100D60000800002080B582B000AF78607B681B78F7
:100D7000002B04D07B68181CFFF7F4FE03E07B68AF
:100D8000181CFFF741FFBD4602B080BD80B584B09E
:100D900000AF021CFB1D1A700023BB60FB1D1B78FB
:100DA0005BB2002B0BDA1A4B1968FB1D1A780F2364
:100DB0001A40D0238A18D3181B79FB600AE0144B21
:100DC0001968FB1D1A780F231A40E0238A18D318DC
:100DD0001B79FB60FB68002B0BD00D4B1968FA6880
:100DE000131C9B009B18DB003033CB180433BB6013
:100DF00008E0FB1D1A780F23134003D1044B1B6836
:100E00003433BB60BB68181CBD4604B080BDC0460F
:100E10000800002080B500AFFFF752FD02F0BEFDD4
:100E2000FFF762FDBD4680BD80B500AFFFF748FD0E
:100E300002F054FFFFF758FDBD4680BD80B500AFFE
:100E4000034B1A682023D35C181CBD4680BDC046E6
:100E50000800002080B58EB000AF7860112004F04B
:100E60004FFA031C042B03D01120042104F040FB93
:100E7000DC4B181C012104F031F9DB4B181C02215A
:100E800004F036FBD94B181C012104F027F903F0BC
:100E900093FBD74B1B68181C0021F82206F0E7FFD4
:100EA000D34B1B68D24A126804321A60D04B1B68BD
:100EB0007A6812685A62CE4B1B687A6852689A62E6
:100EC000CB4B1B687A689268DA62C94B1B687A68F8
:100ED000127B9A77C64B1A6820230721D154C44B42
:100EE0001A6821230021D154C14B1A682223002102
:100EF000D154BF4B1B687A6852691A63BC4B1B689C
:100F000000225A77BA4B1B683433BB61BB6900229D
:100F10001A70BB6900229A60BB6900229A70BB6993
:100F20000122DA81BB690022DA70BB6900221A71E2
:100F3000BB6900225A717B681B68DB791A1CBB698C
:100F40009A81BB699B89202B05D1A94B1A68F42390
:100F50000121D1500CE0BB699B89402B05D1A44BEA
:100F60001A68F4230021D15002E004235B42EDE132
:100F7000BB6900221A61BB6900225A61BA69202349
:100F80000021D154BB6900225A62BB699B899B082E
:100F90009BB21A1CBB69DA61BB69DA697B681B69A1
:100FA0001B7853437B62BB69DB695A1C7B681B69F6
:100FB0001B785343BB6200237B6300233B62002307
:100FC000FB618B4B1B689B6AFB62894B1B689B6AAE
:100FD0009A78DB781B0213439BB2FA6AD3187B61C1
:100FE0003B1C333301221A7011E1FB6A1B78002B82
:100FF00009D1804AB2235B00101C191C02F08EFC40
:1010000004235B42A2E1FB6A01331B78052B00D06D
:10101000CBE07B6B01337B63FB6A3B61744B1968EC
:101020007A6B131C9B009B18DB003033CB18043306
:10103000BB613B699B78DBB2DB09DAB2BB691A7032
:10104000BB6900229A603B699A78BB69DA70BB6918
:10105000DA780F231340DAB2BB699A70BB699B78C8
:101060000122111C99400B1C9AB2BB69DA813B69C1
:10107000DA7803231340DAB2BB691A713B691A7933
:101080005B791B0213439AB2BB699A81BB69002248
:101090001A61BB6900225A61BA6920230021D15428
:1010A000BB6900225A627B681A697B6BD3181B7874
:1010B000002B09D14F4A8623FF33101C191C02F064
:1010C0002DFC04235B4241E1BB691B78002B3AD025
:1010D0003B6A01333B623B1C33331B783A1C33328F
:1010E000591C1170BA695371BB699B890333002B7A
:1010F00000DA03339B101A1C7B6819697B6BCB18D1
:101100001B7853431A1CBB69DA61394B1868BB69F9
:101110009B78191C7B6BDAB2D0234118CB181A715B
:10112000BB69DB697A6AD3187B62BB699B78032B46
:1011300068D9304ACA235B00101C191C02F0EEFB70
:1011400004235B4202E1FB690133FB61BB699B89BC
:101150000333002B00DA03339B105A1C7B68196998
:101160007B6BCB181B7853431A1CBB69DA61204B8D
:101170001868BB699B78191C7B6BDAB2E0234118B5
:10118000CB181A71BB69DB69BA6AD318BB62BB6939
:101190009B78032B36D9174AD1235B00101C191CEE
:1011A00002F0BCFB04235B42D0E0FB6A01331B78F6
:1011B000042B27D1FB6AFB60FB68DB78002B21D175
:1011C0000B4B1B68DA7FFB689B789A4214D0094A64
:1011D000D8235B00101C191C02F0A0FB04235B4207
:1011E000B4E0C0460023020004001C0004082200F2
:1011F00008000020A0A50000564B1B68DA7F0132D2
:10120000D2B2DA77FB6A1B78FA6AD318FB62FA6A01
:101210007B699A4200D2E8E6BB6A1333BB624D4B4E
:101220001B689B6A1A794B4B1B68DB7F9A4209D07B
:10123000494AC423FF33101C191C02F06FFB04231E
:101240005B4283E07B6B032B09D0434AE5235B00C1
:10125000101C191C02F062FB04235B4276E03B6A1F
:10126000032B09D93C4AD223FF33101C191C02F06E
:1012700055FB04235B4269E0FB69032B09D9364A1D
:10128000EC235B00101C191C02F048FB04235B429A
:101290005CE0FFF715FB314B304A126C18210A4312
:1012A0001A642E4ADC230121D1502D4B181C092130
:1012B00004F01EF9294A2949D023CB5801211943AA
:1012C000D023D1503B1C0833181C04F079FE3B1C82
:1012D00008339B78052B0ED13B1C08335B78012B20
:1012E00009D13B1C08331B78002B04D11D4BA422D1
:1012F00092001A6003E01B4BE92212011A60FFF70B
:101300000FFBBA6A7B6A101C191C02F059FB031C04
:10131000002B10D1FFF726FBFFF714FB1320FFF77C
:10132000B9FA1320FFF7A0FA002000F0C3F8FFF786
:10133000DBFA00230AE0FFF7D7FA074A83239B0072
:10134000101C191C02F0EAFA04235B42181CBD466B
:101350000EB080BD08000020A0A5000000800C4059
:101360000733200000400C4080B586B000AFF86025
:10137000B9607A603B60FB68DBB2181CFFF706FDC2
:10138000031C7B617B69002B08D1434A434B101C33
:10139000191C02F0C3FA04235B4278E07A68404BE0
:1013A0009A420ADC7B699B897868191C06F064FC08
:1013B000031C1A1C3B4B9A4208DD374A3A4B101C5F
:1013C000191C02F0ABFA04235B4260E0BA68032305
:1013D000134008D0304A354B101C191C02F09EFAFD
:1013E00004235B4253E0FFF76BFA7B69181CFFF79D
:1013F000CBFA031C002B04D0FFF776FA05235B42DF
:1014000045E07A692023D35C002B04D0FFF76CFA07
:1014100002235B423BE07B699B78002B09D0FFF7FE
:101420000DFD031C052B04D0FFF75EFA09235B4278
:101430002DE07B69BA689A607A687B691A617B697A
:1014400000225A617B699B78002B03D17B690022C3
:101450001A700EE07B691B78002B0AD0FFF744FA64
:101460000D4A134B101C191C02F058FA04235B425E
:101470000DE07A6920230221D1547B693A685A62CF
:101480007B69181CFFF718FCFFF72EFA0023181CC5
:10149000BD4606B080BDC046A0A5000042020000C7
:1014A000FFFF0700FF0300004A0200005102000096
:1014B0007702000080B584B000AF021CFB1D1A70DB
:1014C0001D4B19683B1C0F3320228A5C1A70FB1DD0
:1014D0001B78062B06D1184B1A68391C0F312123B3
:1014E0000978D154144B1A68134B19682023C95C2E
:1014F0002223D154104B1A68F91D20230978D154A6
:101500000D4B1B681B6B5B68002B12D03A1C0F3213
:10151000FB1D12781B789A420BD0074B1B681B6B84
:101520005B683A1C0F321178FA1D1278081C111CE6
:101530009847BD4604B080BD0800002080B586B045
:1015400000AFF860B9607A603B60FB68DBB2181CE2
:10155000FFF71CFC031C7B617B69002B08D1454A0B
:10156000454B101C191C02F0D9F904235B427CE0A6
:101570007A68424B9A420ADC7B699B897868191C1D
:1015800006F07AFB031C1A1C3D4B9A4208DD394ACF
:101590003C4B101C191C02F0C1F904235B4264E0AF
:1015A000BA680323134009D0324AD9239B00101C88
:1015B000191C02F0B3F904235B4256E0FFF780F9EF
:1015C0007B69181CFFF7E0F9031C002B04D0FFF720
:1015D0008BF905235B4248E07A692023D35C002B1A
:1015E00004D0FFF781F902235B423EE07B699B78E0
:1015F000002B09D0FFF722FC031C052B04D0FFF7BA
:1016000073F909235B4230E07B69BA689A607A68B3
:101610007B691A617B6900225A617B699B78002B88
:1016200003D17B6901221A7011E07B691B780122CA
:101630005340DBB2002B0AD0FFF756F90D4A124B8C
:10164000101C191C02F06AF904235B420DE07A6950
:1016500020230121D1547B693A685A627B69181CA6
:10166000FFF72AFBFFF740F90023181CBD4606B020
:1016700080BDC046A0A5000055030000FFFF070085
:10168000FF0300005D0300008A03000080B584B002
:1016900000AF78600A1CFB1C1A70FB1C1B78002B27
:1016A00003D07A6820230021D1547B681B78002B5B
:1016B0002FD07B68DB89FB607B689B785B01304ABD
:1016C0009B181A682F4B1340BB60BA6880231B021B
:1016D000134011D1BA682C4B1A407B689B891A437E
:1016E0007B681B799B041A437B685B799B051343DA
:1016F000264A1343BB6004E0BB68802252051343B3
:10170000BB607B689B785B011D4A9B18BA681A60B6
:101710002BE07B68DB891B04FB607B689B785B01AB
:101720001B4A9B181A68174B1340BB60BA6880238A
:101730001B0213400DD1BA68164B1A407B689B8977
:101740001A437B681B799B041343104A1343BB6005
:1017500004E0BB68802252051343BB607B689B7822
:101760005B010B4A9B18BA681A600B4A0A490B4B7B
:10177000C958FB681943094BD150BD4604B080BD20
:1017800000091040FFFFFFC300F813FC00800018A1
:10179000000B104000F8D3FF00400C401CC80300B1
:1017A00080B584B000AF78607B681B78002B0AD0CE
:1017B0007B689B785B010F4A9B1800221A607B684C
:1017C000DB89FB600AE07B689B785B010A4A9B1817
:1017D00000221A607B68DB891B04FB60074A07490B
:1017E000074BCB58F968C9431940054BD150BD464A
:1017F00004B080BD00091040000B104000400C40B8
:101800001CC8030080B586B000AF786039603B1C0F
:101810001733FF221A707B681B78002B24D07B685B
:101820009B785B01264A9B181B683B613A69C02381
:101830001B031340FB60FA68C0231B039A4204D0C9
:10184000FA6880231B039A4232D13A6980239B03B2
:1018500013405A1E9341DBB21A1C3B681A803B1C92
:10186000173300221A7023E07B689B785B01154ACE
:101870009B181B683B613A69C0231B031340FB6044
:10188000FA68C0231B039A4204D0FA6880231B0322
:101890009A420DD13A6980239B0313405A1E93410B
:1018A000DBB21A1C3B681A803B1C173300221A70EB
:1018B0003B1C17331B785BB2181CBD4606B080BDBD
:1018C00000091040000B104080B582B000AF021C30
:1018D000FB1D1A70084A0849F2239B02C958074B9E
:1018E0001940FB1D1B781B011943F2239B02D150A9
:1018F000BD4602B080BDC04600400C400FF8FFFF5F
:1019000080B586B000AF78603B1C1333FF221A709D
:101910007B681B78002B29D07B689B785B01284A69
:101920009B181A68274B13407B617A69C0231B03FD
:101930001340FB60FA688023DB029A4237D07B6950
:10194000002B04DA7B698022D20513437B617B681C
:101950009B785B011A4A9B187A69802189030A43A4
:101960001A603B1C133300221A7020E07B689B78BE
:101970005B01154A9B181A68124B13407B617A6908
:10198000C0231B031340FB60FA688023DB029A42EA
:101990000DD07B689B785B010B4A9B187A6980218C
:1019A00089030A431A603B1C133300221A703B1C44
:1019B00013331B785BB2181CBD4606B080BDC04611
:1019C00000091040FFFFFFC3000B104080B586B038
:1019D00000AF78603B1C1733FF221A707B681B78BE
:1019E000002B2CD07B689B785B012F4A9B181A68D0
:1019F0002E4B13403B613A69C0231B031340FB602D
:101A0000FA68C0231B039A4204D0FA6880231B03A0
:101A10009A4240D13B698022520513433B613A69A7
:101A2000234B13403B617B689B785B011E4A9B18EC
:101A30003A691A603B1C173300221A702BE07B684E
:101A40009B785B011B4A9B181A68184B13403B613B
:101A50003A69C0231B031340FB60FA68C0231B03D1
:101A60009A4204D0FA6880231B039A4213D13B693F
:101A70008022520513433B613A690D4B13403B6191
:101A80007B689B785B010B4A9B183A691A603B1C88
:101A9000173300221A703B1C17331B785BB2181CDB
:101AA000BD4606B080BDC04600091040FFFFFFC321
:101AB000FFFFDFFF000B104080B584B000AF021CB9
:101AC000FB1D1A700123FB6012E00C4B1968FA68C9
:101AD000131C9B009B18DB003033CB181A1DFB1D19
:101AE0001B78101C191CFFF7D1FDFB680133FB604C
:101AF000FB68032BE9DDBD4604B080BD0800002073
:101B000080B584B000AF021CFB1D1A700123FB607E
:101B100016E0114B1968FA68131C9B009B18DB0038
:101B20003033CB180433BB60BA682023D35C002B5E
:101B300003D1BB68181CFFF733FEFB680133FB6061
:101B4000FB68032BE5DDFB1D1B785BB2181C02F064
:101B50000DFBBD4604B080BD0800002080B584B0F8
:101B600000AF021CFB1D1A700023BB60FB1D1B781D
:101B70005BB2002B0BDA1A4B1968FB1D1A780F2386
:101B80001A40D0238A18D3181B79FB600AE0144B43
:101B90001968FB1D1A780F231A40E0238A18D318FE
:101BA0001B79FB60FB68002B0BD00D4B1968FA68A2
:101BB000131C9B009B18DB003033CB180433BB6035
:101BC00008E0FB1D1A780F23134003D1044B1B6858
:101BD0003433BB60BB68181CBD4604B080BDC04632
:101BE0000800002080B584B000AF78607B681B6877
:101BF000BB607B681B6B9B68002B0CD07B681B6BEE
:101C00009B68BA68101C9847031CFB60FB68033391
:101C100001D0FB6853E001235B42FB60BB681B788B
:101C20005B069B0FDBB2002B48D1BB685B780B2BAC
:101C300043D89A00244BD3181B689F467B68181C16
:101C400000F000FA031CFB6038E07B68181C00F011
:101C50003DF8031CFB6031E07B68181C00F0E0FBE2
:101C6000031CFB602AE07B68181C00F0CFFA031C01
:101C7000FB6023E07B68181C00F0F8F8031CFB6095
:101C80001CE07B68181C00F093F8031CFB6015E057
:101C90007B68181C00F024FB031CFB600EE07B68D3
:101CA000181C00F07FF9031CFB6007E07B68181C20
:101CB00000F042FC031CFB6000E0C046FB68181CFF
:101CC000BD4604B080BDC046B4A5000080B586B056
:101CD00000AF786001235B427B617B681B683B61DE
:101CE0003B699A79DB791B0213439BB2002B02D02C
:101CF00001235B4258E03B691B78DB06DB0EDBB25D
:101D0000002B02D0022B28D04DE03B691A795B7979
:101D10001B0213439BB2002B1ED13B699A78DB78E0
:101D20001B0213439BB2012B16D17A682023D35C8C
:101D3000042B04D07A682023D35C052B0CD17B685C
:101D40009B6ADB791A1C2023134005D07B68002294
:101D50005A7700237B6126E025E03B691A795B799D
:101D60001B0213439BB2DBB2181CFFF7F7FE031CE8
:101D7000FB60FB68002B16D0FB689B78002B12D011
:101D80003B699A78DB781B0213439BB2002B0AD184
:101D90007A682023D35C052B05D1FB68181CFFF75C
:101DA00015FE031C7B617B69181CBD4606B080BD17
:101DB00080B586B000AF786001235B427B617B68B1
:101DC0001B683B61284BFB603B691A795B791B02FE
:101DD00013439BB2002B1DD13B699A79DB791B021F
:101DE00013439BB2012B15D13B699A78DB781B0218
:101DF00013439BB2002B0DD13B691B781B06DB0FF5
:101E0000DBB2012B06D13B691B78DB06DB0EDBB2B4
:101E1000002B02D001235B4221E07A682023D35CAF
:101E2000042B0CD1FB6800221A70FB680020191CDF
:101E300001220023FFF782FB031C7B610EE07A681E
:101E40002023D35C052B09D17B681C330020191C8F
:101E500001220023FFF772FB031C7B617B69181CC6
:101E6000BD4606B080BDC046500C002080B58AB08B
:101E700000AF78603B1C263300221A8000233B62AF
:101E800001235B42FB617B681B68BB61BB691B78FC
:101E9000DB06DB0EDBB2002B06D1BB691B781B0611
:101EA000DB0FDBB2012B02D001235B4275E0BB6983
:101EB0009A78DB781B0213439BB21A1CFF23134052
:101EC0007B61BB699A78DB781B0213439BB21B0AC8
:101ED0009BB2022B11D0032B20D0012B34D17B6974
:101EE000002B00D030E07B685B6A3B627B685B6AFA
:101EF0001A783B1C26331A8026E07B69002B00D021
:101F000022E07B689B6A3B627B689B6A3A1C2632B4
:101F10009978DB781B020B43138015E07B689B7F6D
:101F20001A1C7B699A420EDD7B68DA6A7B699B002A
:101F3000D3181B683B613B693B623B691A783B1CC9
:101F400026331A80FFE7C0463B1C26331B88002B34
:101F500022D03B1C0E333A1C263212881A803A1CBF
:101F60000C32BB699979DB791B020B4313803B1C54
:101F70000C333A1C0E3212881B8898B291B28842F8
:101F800000D9131C9BB23A6A0020111C1A1C0023B2
:101F9000FFF7D4FA031CFB61FB69181CBD460AB0AD
:101FA00080BDC04680B586B000AF786001235B423B
:101FB0007B617B681B683B61214BFB603B691A7945
:101FC0005B791B0213439AB27B68DB7F9A421DD276
:101FD0003B699A79DB791B0213439BB2012B15D124
:101FE0003B699A78DB781B0213439BB2002B0DD11F
:101FF0003B691B781B06DB0FDBB2012B06D13B696B
:102000001B78DB06DB0EDBB2012B02D001235B4227
:1020100011E07A682023D35C052B0BD1FB680022EA
:102020001A70FB680020191C01220023FFF786FAB2
:10203000031C7B617B69181CBD4606B080BDC04691
:10204000500C002080B586B000AF786001235B4261
:102050007B617B681B683B616B4BFB603B699A78DB
:10206000DB781B0213439BB2002B0ED13B699A799C
:10207000DB791B0213439BB2022B06D13B691B7811
:102080001B06DB0FDBB2012B02D001235B42B7E062
:102090003B691B78DB06DB0EDBB2012B52D0022B37
:1020A00000D179E0002B00D0A9E03B691A795B7977
:1020B0001B0213439BB2002B43D17A682023D35CCD
:1020C000042B04D07A682023D35C052B39D1FB681C
:1020D00000221A807B685B7F002B06D0FB681B8880
:1020E000022213439AB2FB681A807B681B6BDB6881
:1020F000002B0ED07B681B6BDB689847031C002B02
:1021000015D0FB681B88012213439AB2FB681A8022
:102110000DE07B689B6ADB791A1C4023134006D0D4
:10212000FB681B88012213439AB2FB681A80FB6884
:102130000020191C02220023FFF700FA031C7B6118
:102140005DE05CE07A682023D35C042B07D13B6917
:102150001A795B791B0213439BB2002B0ED07A686D
:102160002023D35C052B16D13B691A795B791B02BE
:1021700013439AB27B68DB7F9A420CD2FB68002241
:102180001A80FB680020191C02220023FFF7D6F9F1
:10219000031C7B6133E032E03B691A795B791B02F7
:1021A00013439BB2DBB2181CFFF7D8FC031CBB60C7
:1021B000BB68002B22D07A682023D35C042B03D188
:1021C000BB689B78002B04D07A682023D35C052B56
:1021D00014D1BA68FB68101C191CFFF713FB031C11
:1021E0007B617B69002B09D1FB680020191C02224E
:1021F0000023FFF7A3F9031C7B61FFE7C0467B695F
:10220000181CBD4606B080BD500C002080B584B0BF
:1022100000AF786001235B42FB607B681B68BB609A
:10222000BB681A795B791B0213439BB2002B16D152
:10223000BB689A79DB791B0213439BB2002B0ED14A
:10224000BB689A78DB781B0213439BB27F2B06D8BE
:10225000BB681B78DB06DB0EDBB2002B02D0012350
:102260005B4239E07A682023D35C032B17D1BB682B
:102270009A78DB781B0213439BB2002B02D0042018
:10228000FFF718F9BB689A78DB781B0213439BB2FF
:10229000DBB2181CFFF718FB0023FB601BE07A6819
:1022A0002023D35C042B16D1BB689A78DB781B0201
:1022B00013439BB2002B02D10320FFF7FBF8BB684E
:1022C0009A78DB781B0213439BB2DBB2181CFFF732
:1022D000FBFA0023FB60FB68181CBD4604B080BD00
:1022E00080B584B000AF786001235B42FB607B68FF
:1022F0001B68BB60BB681A795B791B0213439BB2F6
:10230000002B18D1BB689A79DB791B0213439BB26F
:10231000002B10D1BB689A78DB781B0213439BB269
:102320001B0A9BB2002B06D1BB681B78DB06DB0EB9
:10233000DBB2002B02D001235B426CE07A682023E1
:10234000D35C042B2FD1BB689A78DB781B02134334
:102350009BB2002B0AD0BB689A78DB781B02134330
:102360009AB27B689B6A5B799A4253D1BB689A7830
:10237000DB781B0213439BB2DAB27B681A77BB6827
:102380009A78DB781B0213439AB27B689B6A5B796D
:102390009A4205D10120FFF78FFB0520FFF78AF84D
:1023A0000023FB6036E07A682023D35C052B31D113
:1023B000BB689A78DB781B0213439BB2002B0AD0D0
:1023C000BB689A78DB781B0213439AB27B689B6ADE
:1023D0005B799A421ED1BB689A78DB781B02134363
:1023E0009BB2DAB27B681A77BB689A78DB781B02FB
:1023F00013439BB2002B08D10420FFF75BF809239D
:102400005B42181CFFF77CFB02E00020FFF754FB47
:102410000023FB60FB68181CBD4604B080BDC046AD
:1024200080B586B000AF786001235B427B617B683A
:102430001B683B613B699A79DB791B0213439BB2B2
:10244000002B02D001235B4271E03B691B78DB0665
:10245000DB0EDBB2002B02D0022B23D066E03B69FF
:102460001A795B791B0213439BB2002B19D13B698C
:102470009A78DB781B0213439BB2012B11D17A6847
:102480002023D35C052B0CD17B689B6ADB791A1C5B
:102490002023134005D07B6801225A7700237B61FB
:1024A00044E043E03B691A795B791B0213439BB21A
:1024B000DBB2181CFFF752FB031CFB60FB68002B10
:1024C00034D0FB689B78002B30D03B699A78DB785E
:1024D0001B0213439BB2002B28D17A682023D35CC4
:1024E000052B23D1FB68181CFFF70AFA031C7B613C
:1024F000FA6820230021D1547B69002B16D1FA6899
:102500002023D35C002B11D0FB685B6A002B0DD01D
:10251000FB685B6ABB60FB6800225A62FB68596912
:10252000FB681A6905235842BB6898477B69181CE9
:10253000BD4606B080BDC04680B584B000AF7860AF
:1025400001235B42FB607B681B68BB60BB681A7938
:102550005B791B0213439AB27B68DB7F9A4220D2DD
:10256000BB689A79DB791B0213439BB2002B18D10D
:10257000BB689A78DB781B0213439BB2002B10D107
:102580007A682023D35C052B0BD1BB681B78DB0654
:10259000DB0EDBB2012B04D10020FFF78DFA002304
:1025A00000E0FB68181CBD4604B080BD80B586B055
:1025B00000AF78603B1C1333FF221A707B681B78D6
:1025C000002B29D07B689B785B01284A9B181A68EE
:1025D000274B13407B617A69C0231B031340FB60C8
:1025E000FA688023DB029A4237D07B69002B04DA39
:1025F0007B698022D20513437B617B689B785B01FA
:102600001A4A9B187A69802189030A431A603B1C85
:10261000133300221A7020E07B689B785B01154A17
:102620009B181A68124B13407B617A69C0231B0305
:102630001340FB60FA688023DB029A420DD07B686E
:102640009B785B010B4A9B187A69802189030A43B6
:102650001A603B1C133300221A703B1C13331B7887
:102660005BB2181CBD4606B080BDC04600091040D4
:10267000FFFFFFC3000B104080B582B000AF786051
:1026800039600B4A7B68802109031943094BD150FB
:10269000074A0749084BC958084B19403B680B4388
:1026A000842109061943044BD150BD4602B080BDB8
:1026B00000400C4010C9030000C90300FFFFFF43A6
:1026C00080B582B000AF786039600B4A7B688021AA
:1026D00009031943094BD150074A0749084BC95808
:1026E000084B19403B680B43842109061943044BEE
:1026F000D150BD4602B080BD00400C4010CB03005D
:1027000000CB0300FFFFFF4380B582B000AF7860CD
:102710007A6834230021D1540F4A104B1049D1500C
:102720007B681A1D7B681A600B4A7B681B68191C42
:102730000C4BD150084A08490B4BC9580B4B194058
:102740007868F423C3580B43802109061943064BCC
:10275000D150BD4602B080BD00400C4010CB0300FC
:102760001800086014CB030000CB0300FFFFFF43F9
:1027700080B584B000AF021CFB1D1A700023BB6043
:10278000FB1D1B785BB2002B0BDA1A4B1968FB1D83
:102790001A780F231A40D0238A18D3181B79FB60AC
:1027A0000AE0144B1968FB1D1A780F231A40E02326
:1027B0008A18D3181B79FB60FB68002B0BD00D4BDC
:1027C0001968FA68131C9B009B18DB003033CB1888
:1027D0000433BB6008E0FB1D1A780F23134003D1BC
:1027E000044B1B683433BB60BB68181CBD4604B087
:1027F00080BDC0460800002080B584B000AF78607E
:102800007B681B78002B17D07B681B69FB603B1C27
:102810000A337A6892891A803B1C0A331B88FA684B
:10282000934200D9131C0B4A1168F4228A58181CD1
:10283000111CFFF721FF0AE07B689B891A1C054BDE
:102840001968F423CB58101C191CFFF739FFBD463B
:1028500004B080BD0800002090B585B000AF78605E
:102860007B683433BB60BA682023D35C042B00D967
:1028700032E19A009A4BD3181B689F46BB6800222E
:102880005A70BB6800221A61964B00221A607B685E
:10289000181CFFF7A7F9031CFB60FB68013313D179
:1028A000BB6801221A70BB68181CFFF77FFEBB686B
:1028B00000221A70BB68181CFFF778FE8A4B1B6851
:1028C000181CFFF721FF46E0BA682023D35C022BD7
:1028D00004D0BA682023D35C012B03D1BB685A6AA9
:1028E000804B1A60BA682023D35C022B33D0BB68BC
:1028F0001B69002B19D0BB681A697B681B68997922
:10290000DB791B020B439BB29A4224D2BB681A6943
:10291000BB689B89101C191C05F0A4F90B1C002B2B
:1029200019D1BB6801225A70D6E0704B00221A60A0
:10293000BB685B78002B0ED1BA6820230021D154EC
:102940000020002100220023FEF7F8FDBA682023B2
:102950000321D154C0E0BFE0BB681B69002B07D046
:10296000BB6800221A70BB68181CFFF745FF41E0E6
:102970000023FB605B4B1B68002B0CD0594B1C6881
:10298000BB685B690020191C0022A047031CFB6088
:10299000544B00221A60FB68002B17D0BB68012241
:1029A0001A70BB68181CFFF701FEBB6800221A7082
:1029B000BB68181CFFF7FAFD4B4B1B68181CFFF790
:1029C000A3FEBA6820230021D15413E0464B1B68B4
:1029D000181CFFF799FEBA6820230021D15400206B
:1029E000002100220023FEF7A9FDBA68202303215D
:1029F000D15471E070E0BB681B69002B07D0BB6845
:102A000001221A70BB68181CFFF7F6FE2CE0BB68A9
:102A10005B78012B11D1BB685A69344B1A60BA68D4
:102A200020230021D1540020002100220023FEF7A2
:102A300085FDBB6802225A7016E0BB685B78002BEC
:102A400003D1BB685A69294B1A60BA682023002158
:102A5000D1540020002100220023FEF785FCBA6833
:102A600020230421D15437E036E0214A214BD358AA
:102A7000002B04DB1C4B1B68181CFFF745FE194B91
:102A80001B68002B07D0174B1C68184B1B680020D5
:102A9000191C0022A047BA6820230021D154BB682A
:102AA00000221A7018E0104B1B68181CFFF72CFE50
:102AB0000C4B1B68002B07D00A4B1C680B4B1B6888
:102AC0000020191C0022A047BA6820230021D154FD
:102AD000BB6800221A70C046BD4605B090BDC04616
:102AE000E4A50000540C002008000020580C002031
:102AF00000400C4000CB030080B584B000AF021C46
:102B0000FB1D1A70FB1D1B78181CFFF731FE031C00
:102B1000FB60FA682023D35C012B04D0FA682023E1
:102B2000D35C022B16D1FA6820230021D154FB6814
:102B30005B6A002B0DD0FB685B6ABB60FB68002200
:102B40005A62FB685969FB681A69BB68002098479C
:102B500007E006E0044A7023FF33101C191C00F044
:102B6000DDFEBD4604B080BDF8A5000080B500AF15
:102B700072B6074B1B68013304D0054B1B685A1C07
:102B8000034B1A60024B1B68181CBD4680BDC04633
:102B9000840C002080B582B000AF0B4B1B68002B6B
:102BA0000DD0094B1B685A1E074B1A60064B1B6859
:102BB0007B607B68002B00D162B67B6800E000235D
:102BC000181CBD4602B080BD840C002080B582B0C8
:102BD00000AF021CFB1D1A70084AFB1D1B789B01ED
:102BE00020211943064BD150C046044A044BD25809
:102BF00020231340F9D1BD4602B080BD00400C40F7
:102C000010C0030080B582B000AF074A074BD3580D
:102C10007B60054A064BD2587B6813407B607B681B
:102C2000181CBD4602B080BD00400C4014C003001B
:102C300018C0030080B584B000AF78600D4A0E4B19
:102C40000021D1500B4A0D4B01214942D1500C4B70
:102C5000FB607B681B6B1B69002B03D0FB680822A1
:102C60001343FB60034A044BF968D150BD4604B0DE
:102C700080BDC04600400C4018C0030014C00300D3
:102C800000380C8080B582B000AF78600D4A0D49E5
:102C90000D4BC9580D4B0B408021490019430A4B7D
:102CA000D150084A07490A4BC9580A4B19407B685A
:102CB0000B43842109061943054BD150BD4602B090
:102CC00080BDC04600400C4004C803007FF8FFFFF1
:102CD00000CB0300FFFFFF4380B582B000AF084A7E
:102CE000084BD3587B60064A074BD2587B68134089
:102CF0007B607B681B041B0C181CBD4602B080BDAA
:102D000000400C4018C803001CC8030080B582B006
:102D100000AF084A084BD3587B60064A074BD2588D
:102D20007B6813407B607B681B0C181CBD4602B09F
:102D300080BDC04600400C4018C803001CC80300FA
:102D400080B584B000AF7860084A094BD358FB6067
:102D50007B689B785B01074A9B189B68BB60BB68DC
:102D6000FA681340181CBD4604B080BD00400C40FA
:102D700010C803000009104080B584B000AF78602F
:102D80007B689B785B01094A9B189B68FB60084A3B
:102D9000084BD358802212021A43FB681340FB6091
:102DA000FB68181CBD4604B080BDC046000B104037
:102DB00000400C4014C8030080B582B000AF7860BA
:102DC0007A6834230021D1540F4A104B1049D15056
:102DD0007B681A1D7B681A600B4A7B681B68191C8C
:102DE0000C4BD150084A08490B4BC9580B4B1940A2
:102DF0007868F423C3580B43802109061943064B16
:102E0000D150BD4602B080BD00400C4010CB030045
:102E10001800086014CB030000CB0300FFFFFF4342
:102E200080B584B000AF021CFB1D1A700023BB608C
:102E3000FB1D1B785BB2002B0BDA1A4B1968FB1DCC
:102E40001A780F231A40D0238A18D3181B79FB60F5
:102E50000AE0144B1968FB1D1A780F231A40E0236F
:102E60008A18D3181B79FB60FB68002B0BD00D4B25
:102E70001968FA68131C9B009B18DB003033CB18D1
:102E80000433BB6008E0FB1D1A780F23134003D105
:102E9000044B1B683433BB60BB68181CBD4604B0D0
:102EA00080BDC0460800002080B582B000AFFB1C8A
:102EB00000221A70FFF75AFE464B9B68002B25D064
:102EC000444B1A6880239B0213401FD0414B9A68E1
:102ED000012313400AD03F4B01221A613D4B5A682F
:102EE0000123134002D0FB1C01221A70394B9A684F
:102EF000022313400AD0374B02221A61354B5A681D
:102F00000123134002D1FB1C01221A70FFF77AFE45
:102F1000031C7B607B68002B02D1FFF73BFE56E071
:102F20007A6880231B04134005D000F06FF97A689B
:102F3000294B13407B607B68002B05DA00F054FAC4
:102F40007B685B005B087B607A6880231B01134011
:102F500005D000F015FA7A68204B13407B607A6840
:102F60000823134005D000F06BF97B6808229343D7
:102F70007B607A6880239B01134005D000F038F80D
:102F80007A68174B13407B607A6880235B0113409B
:102F900005D000F07BF97A68124B13407B607A68A9
:102FA0008023DB02134005D000F03AF87A680E4B1C
:102FB00013407B607A6880231B03134005D000F028
:102FC000D9F87A68094B13407B60FFF7E3FDBD46F3
:102FD00002B080BD00400C40FFFF7FFFFFF7FFFF06
:102FE000FFDFFFFFFFEFFFFFFFFFFBFFFFFFF7FF2D
:102FF00080B500AF094B1A68F423D358181CFFF7AB
:1030000041FE064B1A6854230021D154034B1B6820
:10301000181CFFF70FFEBD4680BDC046080000200B
:1030200080B584B000AFFDF709FF031C062B06D165
:103030004E4B1A682123D35C181CFEF73BFAFFF7AE
:103040004BFE021C3B1C08331A800023FB603B1C18
:103050000A3301221A8081E03B1C08333A1C0A32F1
:103060001B88128813409BB2002B6DD0FB68DBB22B
:10307000802252421343DBB2DBB2181CFFF7D0FEB2
:10308000031C7B607B68181CFFF75AFE031C3B6027
:103090003A680123134057D0FB685B0134495B1841
:1030A00001229A60FB68002B24D17B681A697B6837
:1030B0009B899A420ED97B681A697B689B89D21AD0
:1030C0007B681A617B685A697B689B89D2187B6828
:1030D0005A6109E07B685A697B681B69D2187B6872
:1030E0005A617B6800221A61204B1B68181CFFF78D
:1030F000B3FB29E07B681A69FB685B011C495B181C
:103100001B695B035B0BD21A7B685A617B681A6987
:103110007B685B69D21A7B681A617B68DB78181C54
:10312000FFF7EAFC7B689B785B01114A9B189A6861
:1031300080239B01134007D07B689B785B010C497F
:103140005B18802292019A60FB680133FB603A1C95
:103150000A323B1C0A331B88DB181380FB68032BE5
:1031600000DC79E7BD4604B080BDC0460800002001
:103170000009104080B584B000AFFDF75FFE031C6E
:10318000062B06D1204B1A682123D35C181CFEF7AE
:1031900091F9FFF7BBFD021C3B1C08331A8000238A
:1031A000FB603B1C0A3301221A8026E03B1C0833DB
:1031B0003A1C0A321B88128813409BB2002B12D093
:1031C000FB68DBB2181CFFF72BFE031C7B607B68DF
:1031D000181CFFF7D1FD031C3B603A687B68101C8C
:1031E000191C00F017F9FB680133FB603A1C0A3226
:1031F0003B1C0A331B88DB181380FB68032BD5DDCF
:10320000BD4604B080BDC0460800002080B500AFB8
:10321000094A0A4B80210904D150074B5A680123FF
:10322000134003D00320FEF745F902E00020FEF72B
:1032300041F9BD4680BDC04600400C4014C00300AB
:1032400080B500AF0C4A0D4B0821D1500C4B1B68C8
:103250001B6B1B69002B0CD0094B1B681B6B1B697C
:103260000549084A8958084A0A40120A92B2101CB5
:103270009847BD4680BDC04600400C4014C00300C6
:103280000800002008C8030000FF3F0080B582B09E
:1032900000AF304A2F49304BC958304B19402E4BA4
:1032A000D1500020FFF792FC00237B6009E07B688F
:1032B0005B012B4A9B18012252429A607B680133C2
:1032C0007B607B68032BF2DD00237B6009E07B6879
:1032D0005B01244A9B18012252429A607B680133A9
:1032E0007B607B68032BF2DD1A4A1F4B1F49D150CC
:1032F000184A1F4B2921D150164A1E4B0121D1508B
:10330000144A1449F2239B02C9581B4B1940F2235B
:103310009B02D150194B1B68181CFFF74DFD174B32
:103320001B68181CFFF786FC144B1B681B6B1B6883
:10333000002B04D0114B1B681B6B1B6898470320A4
:10334000FEF7B8F80B235B42181C00F00FFFBD46D8
:1033500002B080BD00400C4004C803007EF8FFFFAF
:1033600000091040000B10401CC8030001000100C0
:1033700014C8030010C803000FF8FFFF0800002066
:1033800090B583B000AF164A164B80210901D15089
:103390000A235B42181C00F0E9FEFDF74FFD031CF9
:1033A000002B02D10220FEF785F8FC1DFDF746FD3B
:1033B000031C2370FB1D1B78022B0BD0FB1D1B78FD
:1033C000032B07D0FB1D1B78042B03D0FB1D1B78A0
:1033D000052B02D10620FEF76DF8BD4603B090BD67
:1033E00000400C4014C0030080B500AF064A074BF4
:1033F00080210906D150064B1A682123D35C181C82
:10340000FEF758F8BD4680BD00400C4014C00300D4
:103410000800002080B586B000AF786039603B6856
:103420009B78002B00D0CFE07A680123134000D1B5
:103430009CE0794A794B0121D150774A784BD35897
:10344000FB603A682023D35C002B5BD17A68802331
:103450001B02134004D0704A704B80210902D150E6
:103460003B68181CFFF788FC031C7B606A4A6C4BA6
:10347000D358FB607A680823134032D0664A674B02
:103480000821D1507B68082293437B60FA68C023EF
:10349000DB0513405B0F7B617B69032B01D10223AA
:1034A0007B61604B1B685F4A11687A690220821A4F
:1034B000D2008A1804321A605A4B1B68181CFFF796
:1034C000CBF93A682023D35C032B04D03A6820233D
:1034D000D35C012B4AD1534B1B68181CFFF76CFCC3
:1034E00044E03B68181CFFF747FC031C7B607A68CC
:1034F0000823134000D0C1E74A4B1B68181CFFF794
:103500005BFC33E03A682023D35C022B24D13B6878
:103510001A693B689B899A420ED93B681A693B68D5
:103520009B89D21A3B681A613B685A693B689B8940
:10353000D2183B685A6109E03B685A693B681B69CD
:10354000D2183B685A613B6800221A61354B1B68F0
:10355000181CFFF781F909E03A682023D35C042B9B
:1035600004D1304B1B68181CFFF776F97A682023CA
:10357000134003D0284A294B2021D1507A680823D0
:10358000134045D0244A254B0821D150224A244BD0
:10359000D258C023DB0513405B0F3B613B69032B13
:1035A00001D102233B611F4B1B681E4A11683A6917
:1035B0000220821AD2008A1804321A60194B1B6842
:1035C000181CFFF749F923E07A68012313401FD044
:1035D0003B689B785B0114495B1801229A603B6849
:1035E0009A693B689B785B010F495B181B695B0319
:1035F0005B0BD21A3B685A613B681A693B685B698E
:10360000D21A3B681A613B68DB78181CFFF774FA22
:10361000BD4606B080BDC04600400C4008CB03004C
:1036200010CB030008000020000B104080B582B0D2
:1036300000AF021CFB1D1A70064AFB1D1B78191CEB
:103640001F230B4001219940C0235B00D150BD4690
:1036500002B080BD00E100E080B500AF72B6074B5C
:103660001B68013304D0054B1B685A1C034B1A60BE
:10367000024B1B68181CBD4680BDC046840C002050
:1036800080B582B000AF0B4B1B68002B0DD0094BEF
:103690001B685A1E074B1A60064B1B687B607B68D1
:1036A000002B00D162B67B6800E00023181CBD46E9
:1036B00002B080BD840C002080B500AF064A074BE5
:1036C0001021D150C046044A044BD2581023134055
:1036D000F9D1BD4680BDC04600400C4010C003007B
:1036E00080B582B000AF021CFB1D1A70084AFB1D9A
:1036F0001B789B0120211943064BD150C046044A38
:10370000044BD25820231340F9D1BD4602B080BDEE
:1037100000400C4010C0030080B584B000AF78605A
:103720007B681B78002B0AD07B689B785B010F4A73
:103730009B1800221A607B68DB89FB600AE07B68CB
:103740009B785B010A4A9B1800221A607B68DB8920
:103750001B04FB60074A0749074BCB58F968C9436C
:103760001940054BD150BD4604B080BD0009104042
:10377000000B104000400C401CC8030080B584B012
:1037800000AF7860084A094BD358FB607B689B7890
:103790005B01074A9B189B68BB60BB68FA681340D3
:1037A000181CBD4604B080BD00400C4010C803008A
:1037B0000009104080B584B000AF78607B689B78CA
:1037C0005B01094A9B189B68FB60084A084BD35869
:1037D000802212021A43FB681340FB60FB68181C2E
:1037E000BD4604B080BDC046000B104000400C40F8
:1037F00014C8030080B582B000AF78607B681B7886
:10380000002B11D07B689B785B011A495B187A68A2
:1038100092785201174952181168174A0A409021AC
:10382000C9050A431A6021E07B689B785B01134A53
:103830009B187A6892785201104952181168104A00
:103840000A40802109060A431A607B689B785B0165
:103850000A4A9B187A6892785201084952181168EE
:10386000054A0A409021C9050A431A60BD4602B0C4
:1038700080BDC04600091040FFFFFF83000B1040D1
:10388000FFFFFF4380B584B000AF021CFB1D1A7020
:103890000023BB60FB1D1B785BB2002B0BDA1A4BBD
:1038A0001968FB1D1A780F231A40D0238A18D318E1
:1038B0001B79FB600AE0144B1968FB1D1A780F2373
:1038C0001A40E0238A18D3181B79FB60FB68002B91
:1038D0000BD00D4B1968FA68131C9B009B18DB007A
:1038E0003033CB180433BB6008E0FB1D1A780F237C
:1038F000134003D1044B1B683433BB60BB68181CF6
:10390000BD4604B080BDC0460800002080B582B02E
:1039100000AF7860BD4602B080BDC04680B582B0C1
:1039200000AF786039603B68181CFFF7EFFFFEE7D7
:1039300080B500AF164A1649164BCB580121181C0A
:103940008843011C134BD150114A1149114BCB58DC
:103950000C21181C8843011C0E4BD1500C4A0C49F9
:103960000D4BCB58012119430B4BD150C046084A8F
:10397000094BD25801231340F9D1012000F09CFDDE
:10398000C046034A044BD358002BFADABD4680BD2B
:1039900000400C4000CE030010C0030080B500AF13
:1039A000044A0449044BC958044B1940024BD150F6
:1039B000BD4680BD00400C4004C803007DF8FFFFF9
:1039C00080B58CB000AF78603960B54B01229A6148
:1039D000FFF7AEFFFFF754FE322000F02DFDFFF79A
:1039E0003BFEAF4AAE49F2239B02CB580321194359
:1039F000F2239B02D150AA4AA949F2239B02CB5839
:103A000004211943F2239B02D150A54AA449F22371
:103A10009B02C958A34B1940F2239B02D150A04AE4
:103A20009F49A14BCB583E218B43222119439E4BEA
:103A3000D1509B4A9A499D4BC9589D4B0B408021C0
:103A400009021943994BD1507B687B6210233B627A
:103A50007A6A3B6A934200D2131C3A1C2C321380C0
:103A60008F4A3B1C2C331B889B05990D914BD150E1
:103A7000914B1B681B6DFB611023BB61FA69BB692D
:103A8000934200D2131C3A1C2A321380844A3B1CF6
:103A90002A331B881B04191C3B1C2C331B889B05D9
:103AA0009B0D1943854BD1503B1C2E3301221A70BC
:103AB00055E03B1C2F3301221A7044E03B1C2F338E
:103AC0001B78802252421343DBB2181CFFF7DAFE48
:103AD000031C7B617B69002B2ED07B695B793A1CD0
:103AE0002E3212789A4227D13B1C2C33391C2C31B0
:103AF0003A1C2A32098812888A181A807B69DB6985
:103B00003B611023FB603A69FB68934200D2131CAF
:103B10003A1C2A3213807B695B799B00684A9B18A8
:103B20003A1C2A3212881204111C3A1C2C321288B8
:103B30005205520D0A431A603B1C2F331A783B1C66
:103B40002F3301321A703B1C2F331B78032BB5D94E
:103B50003B1C2E331A783B1C2E3301321A703B1C4F
:103B60002E331B78032BA4D97A683B68D218C02364
:103B70005B009A4201D9FC238DE03B1C2C331A8850
:103B8000C0235B009A4201D9FC2384E01020FFF798
:103B9000A7FDFFF791FD424A4A4B0021D150404A10
:103BA000494B0021D1503E4A484B0021D1503C4A5C
:103BB000474B0021D1503B1C2F3300221A701FE0CD
:103BC0003B1C2F331B785B01424A9B1800221A6072
:103BD0003B1C2F331B785B013E4A9B1800221A6165
:103BE0003B1C2F331B785B013A4A9B18012252423F
:103BF0009A603B1C2F331A783B1C2F3301321A700A
:103C00003B1C2F331B78032BDAD93B1C2F330022AC
:103C10001A701FE03B1C2F331B785B012E4A9B1848
:103C200000221A603B1C2F331B785B012A4A9B1829
:103C300000221A613B1C2F331B785B01264A9B181C
:103C4000012252429A603B1C2F331A783B1C2F33BF
:103C500001321A703B1C2F331B78032BDAD9FDF786
:103C6000D9F80F4B0E4A1268802189020A431A6064
:103C70000B4B03221A610A4B03225A61084B5A6804
:103C80000123134003D0064B0122DA6002E0044B0B
:103C90000222DA6000235BB2181CBD460CB080BD66
:103CA00000400C40FFE7FFFF08C0030004C803000A
:103CB0007F78FFFF24C003000800002028C0030015
:103CC0000001104010C8030014C803001CC8030002
:103CD00034C8030000091040000B104080B500AF4D
:103CE000054A0549054BC958054B0B4002211943AC
:103CF000024BD150BD4680BD00400C4004C80300BB
:103D00007DF8FFFF80B586B000AF3B1C0A33002270
:103D10001A803B1C083300221A8001237B6145E096
:103D2000AB4B19687A69131C9B009B18DB0030337E
:103D3000CB1804337B607A682023D35C002B32D00D
:103D40007B681B78002B17D07B68D9893B1C0A3312
:103D50003A1C0A3212880A431A807B689B785B01FE
:103D60009C481B187A68927852019A4952189268B6
:103D700042210A439A6016E07B68D9893B1C0833CC
:103D80003A1C083212880A431A807B689B785B01D0
:103D9000914A9B187A68927852018F48121892685B
:103DA00002210A439A607B6901337B617B69032BA3
:103DB000B6DD3B1C0A331B88002B3BD0874A874962
:103DC000874BCB5842211943854BD1503B1C0E33B6
:103DD0003A1C0A3212881A8001237B6127E07C4B4F
:103DE00019687A69131C9B009B18DB003033CB18D1
:103DF00004337B607B68DB893A1C0E3212881340E7
:103E00009BB2002B10D07B689B785B0171495B18DB
:103E10007A68927852016F4812181168714A0A4004
:103E2000802109050A431A607B6901337B617B6944
:103E3000032BD4DD3B1C08331B88002B3ED0674A84
:103E40006649694BC958694B0B408021C900194329
:103E5000654BD150614A6149654BCB58802119436C
:103E6000634BD1505D4A5D495F4BC9585F4B0B4076
:103E70008021890019435C4BD1505E4B3B6102E0CD
:103E80003B69013B3B61554A5B4BD2588023134051
:103E900002D13B69002BF3D1504A5049544BCB58C7
:103EA0008021181C8843011C514BD1504B4A4B496F
:103EB000524BCB5802211943504BD1503B1C0A3373
:103EC0001B88002B55D03B1C0E333A1C0A3212883B
:103ED0001A80484B3B6101237B6132E03C4B1968FF
:103EE0007A69131C9B009B18DB003033CB1804331A
:103EF0007B607B68DB893A1C0E32128813409BB2D0
:103F0000002B1BD07B68181CFFF738FC021C4023D9
:103F1000134013D07B689B785B012E495B184022CD
:103F20009A607B68DB899BB2DB439BB23A1C0E3202
:103F3000128813409AB23B1C0E331A807B690133FE
:103F40007B617B69032BC9DD3B69013B3B613B1C0A
:103F50000E331B88002B02D03B69002BBBD11F4ABC
:103F60001E491F4BCB584021181C8843011C1C4B79
:103F7000D15001237B6116E0154B19687A69131C37
:103F80009B009B18DB003033CB1804337B607A68CE
:103F90002023D35C002B03D07B68181CFFF72AFC7E
:103FA0007B6901337B617B69032BE5DD3B1C0E33B1
:103FB0003A1C0A3212881A803B1C0C333A1C083215
:103FC00012881A800B4B3B6101237B617BE0C0466A
:103FD0000800002000091040000B104000400C4079
:103FE00010C80300FFFFFFC304C803007FF8FFFFF2
:103FF00018C00300983A000014C0030014C803005E
:10400000524B19687A69131C9B009B18DB003033F4
:10401000CB1804337B607B681B78002B24D07B6833
:10402000DB893A1C0E32128813409BB2002B1BD046
:104030007B68181CFFF7A2FB021C0223134013D05D
:104040007B689B785B0142495B1802229A607B681F
:10405000DB899BB2DB439BB23A1C0E3212881340C1
:104060009AB23B1C0E331A807B681B7801225340A6
:10407000DBB2002B24D07B68DB893A1C0C3212881F
:1040800013409BB2002B1BD07B68181CFFF792FBE0
:10409000021C0223134013D07B689B785B012D4ADE
:1040A0009B1802229A607B68DB899BB2DB439BB240
:1040B0003A1C0C32128813409AB23B1C0C331A8003
:1040C0007B6901337B617B69032B99DD3B69013B94
:1040D0003B613B1C0E331B88002B04D13B1C0C3373
:1040E0001B88002B03D03B69002B00D06CE73B1CE6
:1040F0000A331B88002B0CD0174A1749174BCB5893
:104100000221181C8843011C144BD1501020FFF7CA
:10411000E7FA3B1C08331B88002B14D00E4A0E49CB
:104120000F4BCB580221181C8843011C0C4BD1505B
:10413000094A09490B4BC9580B4B0B408021C90058
:104140001943084BD150BD4606B080BD0800002081
:1041500000091040000B104000400C4010C8030044
:1041600014C8030004C803007FF8FFFF80B586B0C1
:1041700000AF021CFB1D1A70FB1D1B785BB21A1CE2
:104180000B3201D0FFF7BEFD01237B6139E0214BEB
:1041900019687A69131C9B009B18DB003033CB181D
:1041A00004333B613A692023D35C002B26D03A6963
:1041B00020230021D1543B695B6A002B1ED03B6950
:1041C0005B6AFB603B6900225A62124B1A68222329
:1041D000D35C052B09D10F4B1A682023D35C042B29
:1041E00003D13B69181CFFF797FA3B6959693B6992
:1041F0001A69FB1D00201856FB6898477B6901333C
:104200007B617B69032BC2DD1320FFF70FFABD46EC
:1042100006B080BD0800002080B582B000AF021C4F
:10422000FB1D1A70064BFA1D1278111C1F220A4042
:104230000121081C9040021C1A60BD4602B080BDDE
:1042400000E100E080B582B000AF021CFB1D1A70D7
:10425000064AFB1D1B78191C1F230B4001219940A6
:10426000C0235B00D150BD4602B080BD00E100E03C
:1042700080B500AF72B6074B1B68013304D0054B05
:104280001B685A1C034B1A60024B1B68181CBD4666
:1042900080BDC046840C002080B582B000AF0B4BBF
:1042A0001B68002B0DD0094B1B685A1E074B1A6068
:1042B000064B1B687B607B68002B00D162B67B6875
:1042C00000E00023181CBD4602B080BD840C002015
:1042D00080B582B000AF786039607A683B6803339C
:1042E0001B01D3185B68181CBD4602B080BDC046D8
:1042F00080B584B000AFF860B9607A60FA68BB68D6
:1043000003331B01D3187A685A60BD4604B080BDE0
:1043100080B582B000AF78607B685B6A181CBD46D0
:1043200002B080BD80B582B000AF786039607B6834
:104330003A689A61BD4602B080BDC04680B582B081
:1043400000AF786039607B68DA683B681A437B6845
:10435000DA60BD4602B080BD80B582B000AF786043
:104360007B681B69181CBD4602B080BD80B582B059
:1043700000AF786039607B683A68DA61BD4602B0A8
:1043800080BDC04680B582B000AF114B181CFFF74E
:10439000E3FF031C7B607A681023134015D00C4B9D
:1043A000181C1021FFF7BEFF094B181C0021FFF756
:1043B0008FFF021C074B1B68D318054A101C0021F5
:1043C0001A1CFFF795FF00F0BFFABD4602B080BD92
:1043D00000000140700C002080B584B000AF021CCA
:1043E000BB1D1A80BB1D1B88002B1DD0104B181C39
:1043F000FFF78EFF021C3B1C0E331A800C4B181C5F
:10440000FFF786FF031C9AB23B1C0C331A803B1C3F
:104410000C331B889AB23B1C0E331B88D31A9BB2F9
:10442000BA1D12889A42E9D8BD4604B080BDC04684
:10443000000001400000000090B585B000AF78603A
:104440001B480068011C0020021C7868031C002027
:10445000041C081C111C1A1C231C03F08DFC031CDB
:104460000C1CBB60FC600BE0124B181CFFF7B4FF88
:10447000B968FA680D4C0C4B5B185441BB60FC608A
:10448000FB68002BF0D1FB68002B03D1BA68094B05
:104490009A42E9D8BB68FC689BB2181CFFF79CFFE6
:1044A000BD4605B090BDC046E0B1FFFFFFFFFFFF76
:1044B000700C0020204E0000F0B58DB000AF786287
:1044C000394B1B68191C00231A1C7B6ABB61002333
:1044D000FB61081C111CBA69FB6903F04DFC031C4D
:1044E0000C1CBB62FC62BB6AFA6A134338D17B6A5C
:1044F000181C0A2103F072FB031C7B622B4B1B6808
:104500003B6100237B617B6ABB600023FB603869F1
:104510007969BA68FB6803F02FFC031C0C1CBB62B2
:10452000FC62BB6AFA6A13431AD17B6A181C0A211F
:1045300003F054FB031C7B621D4B1B683B60002394
:104540007B607B6A1D1C00231E1C386879682A1C4E
:10455000331C03F011FC031C0C1CBB62FC620CE05E
:104560000BE0144B181CFFF737FFB96AFA6A0D4CC1
:104570000B4B5B185441BB62FC62FB6A002BF0D111
:10458000FB6A002B03D1BA6A0A4B9A42E9D8BB6A8C
:10459000FC6A9BB2181CFFF71FFFBD460DB0F0BDB3
:1045A000A015FFFFFFFFFFFF740C0020780C002018
:1045B0007C0C002060EA000080B588B000AF3B1C96
:1045C0000C3301221A703B1C0C3300225A703B1C26
:1045D0000C3300229A703B1C0C330022DA703B1C17
:1045E0000C3300221A713B1C0C3300225A713B1C05
:1045F0000C3300229A713B1C0C330022DA713B1CF5
:104600000C3300221A723B1C0C3300225A723B1CE2
:104610000C3300229A723B1C0C330022DA723B1CD2
:104620000C3300221A733B1C00221A703B1C002220
:104630005A703B1C00229A703B1C0022DA703B1C13
:1046400000221A713B1C00225A713B1C00229A71F5
:104650003B1C0022DA713B1C00221A723B1C002218
:104660005A723B1C00229A72384B181C00F098FDBD
:10467000031CFB61FB69F533FF33181CFA23990017
:1046800003F0ACFA031C1A1C314B1A60FB69314A67
:104690009B18181C304903F0A1FA031C1A1C2F4B5D
:1046A0001A60FB692E4A9B18181C2E4903F096FAD3
:1046B000031C1A1C2C4B1A60FB692C4A9B18181CF3
:1046C0002B4903F08BFA031C1A1C2A4B1A603B1C63
:1046D00002229A71284B181C012100F0FFFC274A86
:1046E000274B101C191CFFF741FE244A3B1C101CD1
:1046F00000211A1C01F03AFD204A3B1C0C33101C0F
:10470000191C01F0AFFC1D4A01235B42101C191C4F
:10471000FFF708FE194B181C1021FFF70FFE174B6F
:10472000181CFFF7F5FD021C094B1B68D318134A30
:10473000101C00211A1CFFF7DBFD0220FFF782FD91
:104740000220FFF769FDBD4608B080BD408104002E
:10475000700C002020A1070040420F00740C0020C4
:1047600050C30000A0860100780C002088130000D0
:10477000102700007C0C0020000204000000014013
:10478000FFFF000080B588B000AFF860B9607A60C4
:10479000FFF76EFD4749FA68082312018A18D318FB
:1047A0001B79002B03D0FB68181C00F087F8BB684E
:1047B000002B04D17B689847FFF76EFD77E03D49F9
:1047C000FA68082312018A18D31801221A71394A8B
:1047D000FB681B01D31808337A681A60354AFB68F6
:1047E0001B01D318043300221A60334B1B68002BC3
:1047F0000BD1304BFA681201B968D150FB681A012D
:104800002C4BD2182C4B1A604FE02B4B1B68BB6112
:10481000294B7B610023FB6144E0BB691A68FB699B
:10482000D218BB689A421DD9BA68FB69D11A214BCC
:10483000FA681201D1501F4AFB681B01D3180433D8
:10484000BA691A60FB681A011A4BD2187B691A60A0
:10485000BB691A68174BF9680901CB58D21ABB69B2
:104860001A6022E0BB695B68002B10D1BA68FB6953
:10487000D21ABB691B68D11A0E4BFA681201D150CB
:10488000FB681A010B4BD218BB695A600DE0BB697B
:104890001B68FA69D318FB61BB6904337B61BB6990
:1048A0005B68BB61BB69002BB7D1FFF7F5FCBD4668
:1048B00008B080BD5C0C00206C0C002080B584B07A
:1048C00000AF7860FFF7D4FC1D4B1B68002B31D084
:1048D0001B4B1B68FB601A4BBB601A497A680823A4
:1048E00012018A18D31800221A7120E07B681A017D
:1048F000144BD218FB689A4213D1FB685B68002BFB
:104900000AD0FB685B68FA68526811680D4A7868DB
:10491000000182588A181A60FB685A68BB681A60DE
:1049200008E0FB680433BB60FB685B68FB60FB6806
:10493000002BDBD1FFF7B0FCBD4604B080BDC04604
:104940006C0C00205C0C002080B582B000AFFFF73B
:104950008FFC164B1B68002B23D0144B1B681A6866
:10496000013A1A6019E0114B1B681B68002B13D128
:104970000E4B1B689B687B600C4B1B6800221A73F4
:104980000A4B1B685A68094B1A607B68002B02D0DF
:104990007B68984701E000E003E0044B1B68002BB4
:1049A000E1D1FFF779FCBD4602B080BD6C0C002060
:1049B00080B586B000AFF860B9607A60FB681B68AC
:1049C0007B61BB680122101C9840031CDB437A69A1
:1049D0001A40796801231940BB68081C9840031CE1
:1049E0001A43FB681A60BD4606B080BD80B582B030
:1049F00000AF786039607B681A683B68DA40012351
:104A00001340181CBD4602B080BDC04680B584B0BE
:104A100000AF78607B68002B04D07A6880231B028B
:104A20009A4205D9084A094B101C191CFEF776FF5B
:104A3000786803F083F9031C1F22D31AFB60FB681C
:104A4000181CBD4604B080BD10A60000C9040000BB
:104A500080B582B000AF78607B680122111C99405C
:104A60000B1C181CBD4602B080BDC04680B500AF0F
:104A7000034BDB6C1B0EDBB2181CBD4680BDC04671
:104A8000B081E00F80B582B000AF254B5A69E023BA
:104A9000DB0013408022920093421ED080229200BD
:104AA000934206D8002B26D08022520093421FD07A
:104AB00027E0C0229200934204D0E022D200934229
:104AC0001CD01EE0FFF7D2FF031C122B02D9154B9E
:104AD0007B6020E0144B7B601DE0FFF7C7FF031CE9
:104AE000122B02D9114B7B6015E0114B7B6012E059
:104AF000104B7B600FE0104B7B600CE00F4B7B603A
:104B000009E00F4A8D235B00101C191CFEF706FFFD
:104B100000237B60C0467B68181CBD4602B080BD88
:104B200000800C40804F120040420F0040B56400EE
:104B3000C0CF6A00C0D8A700809FD500406F400159
:104B400074A6000090B583B000AFFC1C124B181C7B
:104B500000F0D6FB031C2370FB1C1B78072B06D030
:104B6000082B09D102F09CFF031C7B600EE0FFF7CD
:104B700089FF031C7B6009E0084A4423FF33101CB3
:104B8000191CFEF7CBFE00237B60C0467B68181C17
:104B9000BD4603B090BDC04606000C0074A60000E0
:104BA00080B584B000AF7860184BDA6B3B1C0B33D8
:104BB000511E8A411A70154B154ADA63134B5A6815
:104BC00007231340FB607A68124B9A4206D87A6832
:104BD000114B9A4202D90123FB6001E00023FB60E4
:104BE0000A4B0A4A52680721101C8843011CFA68C4
:104BF0000A435A603B1C0B331B78002B02D0034B3B
:104C00000022DA63BD4604B080BDC04600000C40FF
:104C1000711B00000048E8010024F40080B500AFDB
:104C200002F036FF031C181CFFF7BAFFBD4680BD1B
:104C300080B584B000AF78600023BB607B68414AD8
:104C400093420DD0404A93420AD0404A934207D043
:104C50003F4AF1235B00101C191CFEF75FFE00E0C9
:104C6000C0467B68181C00F04BFB031CFB607B6894
:104C7000344A93420BD0344A93420FD0334A934282
:104C800013D1344B9A6A03231340FB6015E0314B78
:104C90009A6A0C2313409B08FB600EE02D4B9A6A26
:104CA000302313401B09FB6007E0294A83239B0044
:104CB000101C191CFEF732FEC046FB68012B05D004
:104CC00014D3022B07D0032B0AD02DE002F06CFF87
:104CD000031CBB6031E002F077FF031CBB602CE0DB
:104CE00002F0B8FE031C5B08BB6026E00023BB603B
:104CF0007A68164B9A4203D07A68124B9A4212D1C4
:104D0000144B9A6A7968114B994201D1102300E043
:104D10001423111CD9400B1C002B04D002F04CFFB3
:104D2000031CBB6009E008E0094A0B4B101C191C6E
:104D3000FEF7F4FD0023BB60C046BB68181CBD46EF
:104D400004B080BD03001A0004001C00020018001B
:104D500074A6000000800C403702000080B582B0CD
:104D600000AF7860074B5A6D0123134000D005E077
:104D7000C046044B1B6D7A681340FAD1BD4602B0A1
:104D800080BDC04600800C4090B583B000AFFC1CD5
:104D9000124B181C00F0B4FA031C2370FB1C1B7888
:104DA000032B08D0082B0BD0022B0ED102F00CFFE6
:104DB000031C7B600CE002F0F7FE031C7B6007E045
:104DC00002F06EFE031C7B6002E000237B60C046A5
:104DD0007B68181CBD4603B090BDC0460733200059
:104DE00080B584B000AF78607B681A090F23134048
:104DF000BB60BB68072B5AD8BB689A00334BD318EB
:104E00001B689F46324B1A68E0235B0213409B0BE2
:104E10000133FB6054E02E4B9A680F231340FB6074
:104E2000FB68181CFFF714FE031CFB6048E0284BCE
:104E30005A680F231340FB60FB68181CFFF708FE3D
:104E4000031CFB603CE07A68224B9A420BD1204B5A
:104E50009A6E0F231340FB60FB68181CFFF7F8FDE8
:104E6000031CFB6008E01C4A1C4B101C191CFEF7BD
:104E700055FD0123FB60C04622E07A68184B9A4238
:104E80000BD1134B1A6F03231340FB60FB68181CF4
:104E9000FFF7DEFD031CFB6008E00F4A114B101CFE
:104EA000191CFEF73BFD0123FB60C04608E00A4ADF
:104EB0000D4B101C191CFEF731FD0123FB60C04691
:104EC000FB68181CBD4604B080BDC04688A6000023
:104ED00000800C406006100074A6000094040000DE
:104EE00070071400AE040000B504000080B584B063
:104EF00000AF786039607B681A090F231340FB60AC
:104F0000FB68072B00D9C2E0FB689A00654BD318F9
:104F10001B689F463B68002B02D03B68082B05D9D5
:104F2000614A624B101C191CFEF7F8FCFFF776FE75
:104F30005F4B5F4A11685F4A11403A68013A920339
:104F40000A431A6002F086FD031CBB60BB68181C94
:104F5000FFF726FEA2E03B68002B04D03A688023CE
:104F60009B009A4205D9504A534B101C191CFEF75E
:104F7000D5FC3B68181CFFF749FD031C3B604C4BFC
:104F80004B4A92680F21101C8843011C3A680A435F
:104F90009A6083E03B68002B04D03A6880239B0032
:104FA0009A4205D9404A454B101C191CFEF7B6FC25
:104FB000FFF734FE3B68181CFFF728FD031C3B601D
:104FC0003B4B3B4A52680F21101C8843011C3A6836
:104FD0000A435A6002F03EFD031CBB60BB68181C0C
:104FE000FFF7DEFD5AE07A68354B9A421ED13A68E7
:104FF00080231B029A4205D92B4A324B101C191CE4
:10500000FEF78CFC0420FFF7A9FE3B68181CFFF795
:10501000FDFC031C3B60264B254A926E0F21101CA1
:105020008843011C3A680A439A6606E01E4A264BEA
:10503000101C191CFEF772FCC0462FE07A68234B47
:105040009A421CD13B68082B05D9174A204B101CEB
:10505000191CFEF763FC4020FFF780FE3B68181C1C
:10506000FFF7D4FC031C3B60114B114A126F032164
:10507000101C8843011C3A680A431A6706E00A4A72
:10508000144B101C191CFEF749FCC04606E0064AEA
:10509000114B101C191CFEF741FCC046BD4604B064
:1050A00080BDC046A8A6000074A60000E20400006F
:1050B00000800C40FF3FFEFFF5040000FD040000EF
:1050C0006006100019050000540500007007140068
:1050D0005E0500007B0500008105000080B586B0FC
:1050E00000AF78600A1CFB1C1A7000233B617B68D0
:1050F0001A0A0F2313400A2B20D89A001F4BD318EB
:105100001B689F461E4B7B6120E01E4B7B611DE0B0
:105110001D4B7B611AE01D4B7B6101233B6115E058
:105120001B4B7B6110233B6110E01A4B7B6180239A
:105130005B003B610AE0184B7B6107E0174ABD2327
:10514000DB00101C191CFEF7E9FB14E07B681A0B4E
:105150001F231340FB603B69002B03D03B69181CE5
:10516000FFF7FCFDFB1C1B787969FA68081C111C11
:105170001A1CFFF71DFCBD4606B080BDC8A6000086
:1051800040800C4008800C4044800C4058800C400B
:1051900060800C4064800C4078800C4074A6000055
:1051A00080B584B000AF78607A68F8239B03134021
:1051B000E0221203934200D17FE0E02212039342E7
:1051C00013D88022920293423DD0802292029342D1
:1051D00002D8002B23D07AE08022D202934223D03F
:1051E000C0221203934263D071E0C0225203934263
:1051F0002ED0C0225203934208D8802252039342F9
:105200002DD0A0225203934241D060E0D02252031D
:10521000934235D080229203934253D057E002F05C
:105220003FFC031CFB605BE002F03AFC031CFB60EC
:105230002E4B9B681A1C0F231340FA68111CD9408F
:105240000B1CFB604CE002F005FC031CFB6047E01C
:10525000274B181CFFF7ECFC031CFB6040E0244BC1
:10526000181CFFF7E5FC031CFB60204B9B6E1A1C0F
:105270000F231340FA68111CD9400B1CFB602FE070
:105280001C4B181CFFF7D4FC031CFB6028E0194BD7
:10529000181CFFF7CDFC031CFB60144B1B6F1A1C82
:1052A00003231340FA68111CD9400B1CFB6017E064
:1052B000FFF748FC031CFB6012E0FFF7E3FB031C55
:1052C000FB600DE0FFF760FD031CFB6008E00A4A8D
:1052D0000A4B101C191CFEF721FB0023FB60C04683
:1052E000FB68181CBD4604B080BDC04600800C4061
:1052F0000200180003001A0074A60000AA060000AD
:1053000080B584B000AF78603B1C0F3301221A7067
:105310007A680F231340BB60BB68072B00D9CAE033
:10532000BB689A006D4BD3181B689F466C4BDA6ABA
:105330006C4B134080225201934216D080225201BE
:10534000934204D880221201934213D01CE08022A1
:105350009201934204D08022D20493420FD013E0F2
:105360003B1C0F3302221A7013E03B1C0F33032245
:105370001A700EE03B1C0F3304221A7009E03B1C2C
:105380000F330A221A7004E03B1C0F3305221A70F7
:10539000C0469BE0524B9A6A03231340022B08D06D
:1053A000032B0BD0012B0ED13B1C0F3303221A70A1
:1053B00015E03B1C0F3302221A7010E03B1C0F3328
:1053C00006221A700BE0464B9A6A80235B02134058
:1053D00004D03B1C0F330B221A7000E0C04675E06E
:1053E0003F4B9A6A0C231340082B08D00C2B0BD090
:1053F000042B0ED13B1C0F3303221A7015E03B1C0B
:105400000F3302221A7010E03B1C0F3306221A7071
:105410000BE0334B9A6A80235B03134004D03B1CA0
:105420000F330B221A7000E0C0464FE02C4B9A6AF3
:1054300030231340102B02D0202B05D009E03B1C59
:105440000F3303221A7009E03B1C0F3302221A703B
:1054500004E03B1C0F3301221A70C04636E03B1CAF
:105460000F3307221A7031E01D4BDA6AE023DB02AA
:10547000134080229202934212D08022D2029342A1
:1054800004D080225202934205D00EE03B1C0F3321
:1054900009221A700EE03B1C0F3302221A7009E039
:1054A0003B1C0F3303221A7004E03B1C0F33012214
:1054B0001A70C0460AE00C4A0C4B101C191CFEF76F
:1054C0002DFA3B1C0F3300221A70C0463B1C0F33D1
:1054D0001B78181CBD4604B080BDC046F4A6000071
:1054E00000800C40003C000474A60000520900003B
:1054F00080B588B000AF78600A1CFB1C1A700323CB
:10550000FB613B1C1B3303221A7000233B617A684A
:105510000F231340FB60FB68072B00D912E1FB68E7
:105520009A008E4BD3181B689F46FB1C1B780B2BD5
:105530002ED89A008A4BD3181B689F460423FB6120
:105540003B1C1B3300221A7029E00323FB613B1C28
:105550001B3301221A7022E00223FB613B1C1B3328
:1055600002221A701BE00123FB613B1C1B33032248
:105570001A7014E00523FB613B1C1B3305221A70D3
:105580000DE0784A784B101C191CFEF7C7F9E1E0D2
:10559000744A764B101C191CFEF7C0F9DAE03B1C6C
:1055A0001B331B78181C0121012200F0F1F8FFF7D2
:1055B00035FB6F4BFA695A6200F0A4FA02F04AFA1E
:1055C000031CBB60BB68181CFFF7EAFAC2E0FB1CB7
:1055D0001B780B2B25D89A00664BD3181B689F4667
:1055E00000237B6124E000200121012200F0D0F89B
:1055F00002237B611CE001200121012200F0C8F898
:1056000001237B6114E05C4B181C02210122FFF78F
:10561000CFF903237B610BE000237B6101233B6116
:1056200006E0504A554B101C191CFEF777F991E023
:10563000FB68022B0BD14E4B4D4A916A504A1140E8
:105640007A6911433A6912040A439A6282E0484B2C
:10565000474A916A4B4A11407A69920011433A696C
:1056600012050A439A6275E0FB1C1B78022B06D0D8
:10567000032B0CD0012B12D100237B6116E00020FC
:105680000121012200F084F802237B610EE0012059
:105690000121012200F07CF801237B6106E0314A00
:1056A000394B101C191CFEF739F953E0304B304AC6
:1056B000926A3021101C8843011C7A6912010A4346
:1056C0009A6247E0FB1C1B78032B13D0092B21D0D7
:1056D000022B2FD100200121012200F059F8244B88
:1056E00040225A62C046224BDA6A80235B02134092
:1056F000F9D026E001200121012200F049F81C4BDD
:1057000060225A62C0461A4BDA6A80239B02134019
:10571000F9D016E005200121012200F039F8144BE0
:1057200080225A62C046124BDA6A8023DB021340A1
:10573000F9D006E00B4A154B101C191CFEF7EEF8C9
:1057400008E007E0074AB1231B01101C191CFEF7F3
:10575000E5F8C046BD4608B080BDC04614A70000AD
:1057600034A7000074A60000DD090000E209000073
:1057700000800C4064A7000040800C40650A0000D7
:10578000FCFFFEFFF3FFEFFF9A0A0000090B000089
:1057900080B586B000AFFB1D1870BB1D19707B1D56
:1057A0001A70FB1D1B78052B32D89A002B4BD3188F
:1057B0001B689F4601233B610223FB6001237B6141
:1057C0002DE004233B610823FB6003237B6126E07B
:1057D00010233B612023FB6005237B611FE04023F6
:1057E0003B618023FB6007237B6118E080235B0023
:1057F0003B6180239B00FB6009237B610FE08023DA
:10580000DB003B6180231B01FB6016237B6106E00C
:10581000134A144B101C191CFEF780F81AE0BB1D2C
:105820001B78002B11D0104B3A691A627B1D1B7834
:10583000002B0DD0C0460D4A7B69101C191CFFF7C8
:10584000D5F8031C002BF6D002E0074BFA681A6269
:1058500000F058F9BD4606B080BDC04694A70000D0
:1058600074A60000C50D000000800C402C800C4088
:1058700080B588B000AF7860081C111C1A1CFB1C96
:105880001870BB1C19707B1C1A707B681A013D4B89
:105890009B68D318BB61BB1C1B78002B02D0BB6973
:1058A000FB6105E07B681A01364BDB68D318FB61AE
:1058B000BB69DB687B617B69002B03D0BB1C1A785A
:1058C0007B691A72FB6A002B15D0FB699A68C023AA
:1058D0001B0513409B0E3B613B69032B03D1FB6906
:1058E000FA6A1A6007E03B693A6B9A40FB6AD31880
:1058F0001A1CFB691A60BB6A002B12D0FB699B68FB
:105900009B0F3B613B69032B03D1FB69BA6A5A6069
:1059100007E03B693A6B9A40BB6AD3181A1CFB69D3
:105920005A607B680122111C99400B1CFB607B1C98
:105930001B78002B03D0134BFA689A6102E0114BDD
:10594000FA68DA61BB1C1B78002B03D00D4BFA6898
:105950005A6302E00B4BFA681A63FB699A680A4BB8
:105960001340BB603B6B1B01BA681343BB60FB1C5D
:105970001B78BA681343BB60FB69BA689A60BD467E
:1059800008B080BD00200C4008C0FFFF90B58BB070
:1059900000AF374A80235B01D358BB61344A354B93
:1059A000D258BB691340BB61BB69002B06DA324A8F
:1059B0002C23FF33101C191CFDF7B0FF2C4B9B6BE5
:1059C0007B61BB697A6913403B620023FB6148E05D
:1059D00000237B623AE03A6A0123134030D0244B23
:1059E0009B683B6101227B6A111C99400B1CFB6088
:1059F0001F4A224BF968D1507B6A1B013A69D318C0
:105A0000DB68BB60BB68002B1AD0BB681B7A7B606D
:105A1000BB681B7A01225340DAB2BB681A72BB68BA
:105A20001B68002B0CD0BB681C68796A7B685A1E07
:105A30009341DAB2BB685B68081C111C1A1CA047B2
:105A40003B6A5B083B627B6A01337B623B6A002BEB
:105A5000C1D17B69DB43BA6913403B62FB69013307
:105A6000FB61FB69012BB3DDBD460BB090BDC046A9
:105A700000200C400C100000ACA700000810000033
:105A800080B588B004AFF8607B603B1C0B331970A5
:105A90003B1C0A331A70FB68052B06D9164AE4230F
:105AA0005B00101C191CFDF739FFFA69134B9A4271
:105AB00006D9114ACA23FF33101C191CFDF72EFF0B
:105AC000F9683B1C0B331A783B1C0A331B78786847
:105AD0000090B8690190F8690290081C0121FFF755
